:020000000A28CC
:10000800FE00030EF1000A08F200332E0B28FC272D
:10001800E000FD27E100FE27E200FF27E300D6010C
:10002800D701D801D901DA01DB01DC01DD01DE01EC
:10003800DF01F801F901FA018301F62FF30101301C
:100048002C23F501F6010130F5070318F60A0030F4
:10005800F60704307602E23003197502031C3528CE
:1000680036282728F30102302C23F501F601013048
:10007800F5070318F60A0030F60704307602E23076
:1000880003197502031C49284A283B2808000A302E
:1000980083120313A2000030A3002B08F4002A08DF
:1000A800F3001230F5000030F6008A277408831236
:1000B8000313A5007308A4000C2583120313220858
:1000C800203EAC0023080318013E003EAD002D0879
:1000D800AB002C08AA000800F500F301F30A750824
:1000E8002C23F601F7010130F6070318F70A003050
:1000F800F70700307702FA3003197602031C8528C7
:100108008628772808008828892800008312031386
:100118009F149F18902891288D281E08F600831692
:1001280003131E08F5007608F4007508F3000800AC
:10013800F7007508031DA128A228A7288030F6001B
:100148007608F500AB28C030F6007608F500F30114
:10015800770875072C230800831203134208BC0094
:100168004108BB004008BA003F08B9000A30BD008A
:100178000030BE004330322743305E270800F400C9
:100188007408F300F30DF30D831203131F087306AD
:08019800C33973069F00080043
:10020000FF1B0A2983137F1883170008840A031928
:10021000FF0A08007F087F398A000408840A03194E
:10022000FF0A8200653403345C34033454340334ED
:100230004C340334453403343D340334353403340F
:100240002D340334243403341B340334173403347F
:100250000E34033404340334FB340234F1340234F6
:10026000E7340234DC340234D2340234C73402348A
:10027000BC340234AF340234A23402349834023431
:100280008E34023484340234793402346E340234CD
:1002900064340234593402344E3402344334023468
:1002A0003D34023432340234273402341C340234F4
:1002B0001134023405340234FA340134EF34013499
:1002C000E4340134D9340134CE340134C23401343D
:1002D000B7340134AC340134A234013497340134DE
:1002E0008C34013481340134743401347434013475
:1002F0006834013460340134573401344E340134ED
:10030000463401343D340134353401342D34013464
:10031000253401341D340134153401340E340134D4
:1003200006340134FF340034F8340034F13400343E
:10033000EA340034E3340034DC340034D63400349E
:10034000D2340034CC340034C6340034C0340034E9
:10035000BA340034B1340034B1340034A73400343A
:10036000A33400349E3400349A340034953400347D
:10037000913400348D3400348934003485340034B1
:10038000813400347D3400347934003476340034E0
:1003900074340034703400346D3400346A34003402
:1003A0006734003463340034603400345D34003426
:1003B0005A34003456340034553400345334003445
:1003C000503400344E3400344C3400344A34003459
:1003D0004834003446340034443400344234003469
:1003E000413400343F3400343D3400343C34003474
:1003F0003A3400343834003437340034353400347F
:100400003434003432340034F634F734F834F93408
:10041000FA34FB34FC34FD34FE34FF340034013450
:100420000234033404340534063407340834093400
:100430000A340B340C340D340E340F3410341134B0
:100440001234133414341534163417341834193460
:100450001A341B341C341D341E341F342034213410
:1004600022342334243425342634273428342934C0
:100470002A342B342C342D342E342F343034313470
:100480003234333434343534363437343834393420
:100490003A343B343C343D343E343F3440344134D0
:1004A0004234433444344534463447344834493480
:1004B0004A344B344C344D344E344F345034513430
:1004C00052345334543455345634573458345934E0
:1004D0005A345B345C345D345E345F346034613490
:1004E0006234633464346534663467346834693440
:1004F0006A346B346C346D346E34543465346D341A
:10050000703420343D34203400346434653467342E
:100510002034433400346434653467342034463442
:1005200000346D3469346E343D3400346D346134DC
:1005300078343D340034453452345234003483121C
:100540000313B8003008B6002F08B5002E08B40019
:100550002D08B3003108A0003208A1000030A11B13
:10056000FF30A200A3003608A7003508A600340813
:10057000A5003308A4007525831203132308B600D1
:100580002208B5002108B4002008B3000130F500AE
:100590007508B8073608350434043304031DD12A1E
:1005A000D22AAA2A38088400831380010130B802B5
:1005B0003108A0003208A1000030A11BFF30A200CA
:1005C000A3003008A7002F08A6002E08A5002D08BC
:1005D000A400DD25831203132008F5007508B70079
:1005E0003108A0003208A1000030A11BFF30A2009A
:1005F000A3003008A7002F08A6002E08A5002D088C
:10060000A4007525831203132308B0002208AF004D
:100610002108AE002008AD000A303702031C112B60
:10062000122B162B0730F5007508B7073030F50090
:100630007508B7073708F500380884007508831374
:1006400080000130B80230082F042E042D04031D51
:100650002A2B2B2BD82A080083120313A300A401F2
:1006600000308B1B0130A1008B1383160313070886
:10067000F400740883120313A20083160313870186
:100680007303031D442B452B492B83120313A40131
:10069000A40A83122308F4007408A0002008F0398B
:1006A000240487008715A501A6010130A5070318BA
:1006B000A60A0030A60700302602023003192502E0
:1006C000031C632B642B552B8711A501A601013058
:1006D000A5070318A60A0030A6070030260202303C
:1006E00003192502031C752B762B672B2308F400B6
:1006F00003300310F40DFF3E031D792B0310740D1E
:10070000240487008715A501A6010130A507031859
:10071000A60A0030A607003026020230031925027F
:10072000031C932B942B852B8711A501A601013067
:10073000A5070318A60A0030A607003026020230DB
:1007400003192502031CA52BA62B972B2208831621
:10075000031387008312031321080319B02BB12B55
:10076000B22B8B1708008720740883120313A10093
:100770007308A000A72683120313D300D401D31B50
:10078000D4035B08803AD5005408803A5502031D13
:10079000CB2B53085A020318CE2BCF2BDD2B8720EF
:1007A000740883120313A1007308A000A726831204
:1007B0000313DA00DB01DA1BDB03872074088312E2
:1007C0000313A1007308A000A72683120313D3000C
:1007D000D401D31BD4035408803AD5006108803A71
:1007E0005502031DF52B600853020318F82BF92B53
:1007F000072C8720740883120313A1007308A0003C
:10080000A72683120313E000E101E01BE1037A0352
:10081000031D0B2C0C2C262C831203136108AB0038
:100820006008AA004B20831203132B08D0002A086B
:10083000CF005B08AB005A08AA004B2083120313B9
:100840002B08D2002A08D100D726312C831203139B
:100850006108D0006008CF005B08D2005A08D100C0
:10086000D7260800F30133302C2383120313A7018A
:10087000A8010130A7070318A80A0030A807043010
:100880002802E23003192702031C472C482C392C7C
:10089000F30132302C2383120313A701A801013086
:1008A000A7070318A80A0030A80704302802E2307E
:1008B00003192702031C5D2C5E2C4F2CF3012C30F6
:1008C0002C2383120313A701A8010130A7070318E3
:1008D000A80A0030A80704302802E23003192702D2
:1008E000031C732C742C652CF30106302C2383120B
:1008F0000313A701A8010130A7070318A80A0030B5
:10090000A80704302802E23003192702031C892CAF
:100910008A2C7B2CF3010C302C2383120313A701A8
:10092000A8010130A7070318A80A0030A80704305F
:100930002802E23003192702031C9F2CA02C912CC3
:1009400022200800831203136303031DA82CA92C83
:100950000B2D222083120313E301F50100309C20AC
:100960000B30C3208720740883120313A10073087F
:10097000A000A726F800F901F81BF9037A03031D6C
:10098000C22CC32CEC2C7D3083120313A7008230C1
:10099000A8000627790883120313AB007808AA0081
:1009A0004B20831203132B08F9002A08F80078085B
:1009B000BF007908C0000030C01BFF30C100C2007A
:1009C000B020F5010A309C208B3083120313A7005E
:1009D0008230A8000627092D7D3083120313A7005B
:1009E0008230A8000627780883120313BF00790815
:1009F000C0000030C01BFF30C100C200B020F501B4
:100A00000A309C20853083120313A7008230A8008F
:100A10000627B3237726080083120313A701A31F19
:100A2000122D132D1A2DA209A309A20A0319A30A34
:100A3000A701A70AA51F1D2D1E2D272DA409A50955
:100A4000A40A0319A50A0130F7007708A706A80130
:100A5000A9012208230403192E2D2F2D662DA6018E
:100A6000A60A3D2D01300310A20DA30DFF3E031D6C
:100A7000332D0130F7007708A607A31F402D412D25
:100A8000322D01300310A80DA90DFF3E031D422D8C
:100A900023082502031D4E2D22082402031C512D7C
:100AA000522D592D2208A4022308031CA503A502D8
:100AB000281401300310A30CA20CFF3E031D5A2D75
:100AC0000130A602031D652D662D412D270803194F
:100AD0006A2D6B2D702DA809A909A80A0319A90A66
:100AE0002908A3002808A20008000030831203137D
:100AF000AB000030AA000030A9000030A800230895
:100B00002204210420040319862D872DD42DAC0145
:100B1000AC0A972D0130F3000310A00DA10DA20D1A
:100B2000A30DF30B8C2D0130F3007308AC07A31F4A
:100B30009A2D9B2D8A2D0130F3000310A80DA90DCD
:100B4000AA0DAB0DF30B9D2D23082702031DB22D1B
:100B500022082602031DB22D21082502031DB22DF5
:100B600020082402031CB52DB62DC52D2008A40293
:100B70002108031C210FA5022208031C220FA60234
:100B80002308031C230FA702281401300310A30C11
:100B9000A20CA10CA00CFF3E031DC62D0130AC021F
:100BA000031DD32DD42D9B2D2B08A3002A08A200B2
:100BB0002908A1002808A0000800831203132308B5
:100BC0002204210420040319E62DE72D2A2EF40126
:100BD000F40AF72D0130F3000310A00DA10DA20DB2
:100BE000A30DF30BEC2D0130F3007308F407A31FE2
:100BF000FA2DFB2DEA2D23082702031D092E2208BA
:100C00002602031D092E21082502031D092E200896
:100C10002402031C0C2E0D2E1B2E2008A4022108DA
:100C2000031C210FA5022208031C220FA602230881
:100C3000031C230FA70201300310A30CA20CA10C6C
:100C4000A00CFF3E031D1C2E0130F402031D292EB3
:100C50002A2EFB2D2708A3002608A2002508A100A4
:100C60002408A0000800831203130C1C382E392E10
:100C70004D2E10100B308F00DC308E001014013020
:100C8000F0007008DF0702305F06031D482E492E72
:100C90004C2EDF01E301E30A0C100B1C502E512EE9
:100CA000702E061C542E552E622E0130F000700856
:100CB000FA0702307A02031C5E2E5F2E602EFA01C4
:100CC00006106F2E861C652E662E6F2E7908DB00AF
:100CD0007808DA007908E1007808E00086100B1047
:100CE00072088A00710E8300FE0E7E0E09008720B6
:100CF000740883120313A1007308A000A7268312AF
:100D00000313AA002A08DD000A30A2000030A30065
:100D10005D08AA00AB012A08A4002B08A5000C2539
:100D2000831203132208AC002C08DD000314DC0D31
:100D30000130AA002A08DE075E085D06031DA12E09
:100D4000A22E962E5C088500DC01DE010800F7016A
:100D5000CF2E770883120313A2002207123E8400CD
:100D600081300318013EFF000021A3000021A400F0
:100D700021082402031DBE2E200823020318C12EC1
:100D8000C22ECB2E7708043E840082300318013E29
:100D9000FF000021D62E0130A2002208F70779308B
:100DA0007702031CD42ED52EA92E9D300800F50104
:100DB000F50A00309C20913083120313A700823083
:100DC000A8000627831203134F08BF005008C00075
:100DD0000030C01BFF30C100C200B020F501F50A91
:100DE00009309C20963083120313A7008230A8009C
:100DF0000627831203135108BF005208C0000030B9
:100E0000C01BFF30C100C200B0200800FF308312B9
:100E10000313A9002908AB00AA01262F2A082707D7
:100E2000840028080318280AFF000021A9002908C7
:100E3000AB002B0803191D2F1E2F202F2B0870200D
:100E4000013083120313A9002908AA072B080319EC
:100E50002A2F2B2F312F10302A02031C302F312F35
:100E60000E2F0800F70083120313BC1F382F392FF1
:100E70004F2F2D30F600770884007608831380000A
:100E80000130F6007608F707B909BA09BB09BC09B1
:100E9000B90A0319BA0A0319BB0A0319BC0A3C08A8
:100EA000B0003B08AF003A08AE003908AD003E087C
:100EB000B2003D08B10077089F2208008312031397
:100EC000A900FF30A7002708AB00AA017E2F2A083F
:100ED0002907A7002708840083130008A800280812
:100EE000AB002B080319752F762F782F2B08702055
:100EF000013083120313A7002708AA072B08031940
:100F0000822F832F892F10302A02031C882F892FCC
:100F1000672F080083120313A001A101731C912FF6
:100F2000922F9A2F750883120313A0070318A10AA2
:100F30007608A10701300310F50DF60DFF3E031DE5
:100F40009B2F01300310F40CF30CFF3E031DA22F66
:100F500073087404031DAD2FAE2F8E2F831203135D
:100F60002108F4002008F30008008B1383160317F0
:100F700088018901831603138501831203138501F8
:100F80000330831603138600831203138601303067
:100F9000900010100B308F00DC308E00831603138E
:100FA0000C14831203130C100B178B1710148B15D2
:100FB0000B10033083160313960008001830F3005B
:100FC00073088316031386040A30F300730883162C
:100FD000031789046430831203139F008030831643
:100FE00003139F00831203131F140800B527322434
:100FF000DE27A224F92F0A28C834003479340134BA
:08400000FF3FFF3FFF3FFF3FC0
:04400E00F420FF3F5C
:00000001FF
